:020000040800F2
:10000000B80D00207502000837220008891C00087E
:1000100033220008D31A0008BF2C0008000000009B
:10002000000000000000000000000000952400080F
:10003000D71A0008000000003D230008A925000889
:100040008F0200088F0200088F0200088F0200084C
:100050008F0200088F0200088F0200088F0200083C
:100060008F0200088F0200088F0200088F0200082C
:100070008F0200088F0200088F0200088F0200081C
:100080008F0200088F0200088F0200088F0200080C
:100090008F0200088F0200088F0200088F020008FC
:1000A0008F0200088F0200088F0200088F020008EC
:1000B0000D26000899260008C52700088F020008B1
:1000C0008F0200088F0200088F0200088F020008CC
:1000D0008F02000875290008FD2900088F0200081A
:1000E0008F0200088F0200088F02000800F002F85B
:1000F00000F0B0F80AA090E8000C82448344AAF112
:100100000107DA4501D100F0A5F8AFF2090EBAE80F
:100110000F0013F0010F18BFFB1A43F0010318473B
:10012000A8920000C89200000A444FF0000C10F89A
:10013000013B13F0070408BF10F8014B1D1108BF65
:1001400010F8015B641E05D010F8016B641E01F805
:10015000016BF9D113F0080F1EBF10F8014BAD1C55
:100160000C1B09D16D1E58BF01F801CBFAD505E073
:1001700014F8016B01F8016B6D1EF9D59142D6D3CD
:10018000704700000023002400250026103A28BFF5
:1001900078C1FBD8520728BF30C148BF0B607047F9
:1001A0006E2900F0A983702900F09381662908F078
:1001B000E680652908F0E380672908F0E08061297E
:1001C000AFF3008003681B0A28BF41F08001692952
:1001D00000F00481642900F00181752900F0FE809F
:1001E0006F2900F0A184782900F05F81E92900F0EF
:1001F0003B84E42900F03884F52900F03584EF29A8
:1002000000F09E84F82900F05E810368DB0928BFB6
:1002100041F08001632900F0AA83732900F0AF83C5
:10022000E32900F01987F32900F01E8700207047AA
:100230001FB500F09BFF04000020002106F0BEFF68
:10024000401C60600020002106F0A2FFE0601FBD9E
:1002500010B510BD00F05CFF1146FFF7E9FF04F098
:10026000F1FA01F035F803B4FFF7F2FF03BC02F036
:10027000ACFD00000948804709480047FEE7FEE75B
:10028000FEE7FEE7FEE7FEE7FEE7FEE7FEE7FEE746
:1002900004480549054A064B70470000AD25000893
:1002A000ED000008B8070020B80D0020B8090020B4
:1002B000B8090020704710B54C1084EA530404D5E7
:1002C0004042C1F1000138BF491E1B4204D55242D1
:1002D000C3F1000338BF5B1E00F021FA14F0804F19
:1002E00004D04042C1F1000138BF491E14F0004F54
:1002F00004D05242C3F1000338BF5B1E10BD0000A2
:100300001CB50C46064B7B4469460090204600F025
:100310000CFB04460020694600F01AFB20461CBD79
:10032000470600000FB4044910B503AA029800F074
:100330002BFB10BC5DF814FB6800002070B5044670
:1003400085690068C10601D5302600E02026C00777
:1003500007D070BDD4E9012130469047206A401C87
:1003600020626D1EF6D570BD70B5044685690078B3
:10037000C00707D170BDD4E9012120209047206A31
:10038000401C20626D1EF6D570BD70B50C4605464A
:10039000012A05D02878800600D5EA69002302E00A
:1003A000012305E05B1C934202D2E05C0028F9D1F6
:1003B000A869E618C01AA861286A18442862284665
:1003C000FFF7BCFF04E0D5E9012114F8010B9047C9
:1003D000B442F8D32846FFF7C7FF70BD2DE9F041BE
:1003E0000646002410687529314616A510D000F085
:1003F00018FA002802DA404213A507E031688A079C
:1004000001D512A502E0490704D511A5012401E098
:1004100000F010FA00210A2206F1240709E0B0FBDF
:10042000F2FCB0FBF2F302FB1C00303078541846AB
:10043000491C0028F3D123462A463046BDE8F04146
:1004400000F001BA000000002D0000002B000000A9
:1004500020000000F0B40D460188090502D5214CAA
:100460007C4402E01F4C7C440E34002100F1240641
:1004700008E002F00F071209E75D42EA03721B0968
:100480007754491C52EA0307F3D10278002312077C
:1004900004D5702D06D009B1022311342246F0BCD8
:1004A00000F0D1B901231034F8E770B504460D46C9
:1004B0002146106800F0BEF9024629462046BDE8F4
:1004C00070400023C6E7D21D22F00703D3E90023C2
:1004D000C0E70368126843F0200303600823C36188
:1004E0000023B7E7568C00002DE9F05F89460446EB
:1004F0004FF0000ADFF874B1FB44C0F820A020469A
:10050000E1688847002874D0252806D0D4E9012165
:100510009047206A401C2062F1E700265F46204693
:10052000E16888472028054607DB312D05D2781978
:1005300010F8200C08B10643F1E7B00701D526F00A
:100540000406C4F81CA00027C4F818A02A2D09D05E
:10055000284602F033FC38B304EB8708303DC8F876
:10056000185019E059F8041B204604EB87029161EA
:10057000E1688847012F054618D1E069002820DA94
:1005800026F020061DE0D8F8180000EB800005EBEF
:1005900040003038C8F818002046E1688847054612
:1005A00002F00CFC0028EED1012F0AD02E2D08D12C
:1005B0002046E16888477F1C0546022F46F020064A
:1005C000C4DBA069002803DA404246F00106A061BE
:1005D000F00701D026F010066C2D0BD0682D09D045
:1005E0004C2D39D06A2D35D0742D35D07A2D33D09D
:1005F00016E038E0E1682F4620468847B8420546B5
:1006000009D16C2F26D04FF48060E1680643204664
:100610008847054604E06C2F1AD04FF480700643DB
:100620000DB3A5F14100192802D8203546F4006623
:100630004A462946204626604E46FFF7B1FD80B166
:1006400001280BD0F61D26F0070000F1080956E737
:100650004020E4E78020D8E70020D6E706F104092F
:100660004DE7284652E7206ABDE8F09FE68B000080
:1006700040EA010310B59B070FD1042A0DD310C81F
:1006800008C9121F9C42F8D020BA19BA884201D971
:10069000012010BD4FF0FF3010BD1AB1D30703D0B9
:1006A000521C07E0002010BD10F8013B11F8014B6F
:1006B0001B1B07D110F8013B11F8014B1B1B01D18B
:1006C000921EF1D1184610BD10B5431C02E010F87F
:1006D000011B71B18107FAD14FF0013202C88C1AA7
:1006E0008C4314EAC211F9D0C01A0A0603D0C01E06
:1006F00010BDC01A10BD0A0401D0801E10BD090231
:10070000FCD0401E10BD02F0FF0343EA032242EA80
:10071000024200F021BA704770477047704753EAB1
:10072000020C00F069802DE9F04B4FF00006002B21
:100730001FBFB3FA83F503FA05F424FA05F65E4009
:1007400012BF1643B2FA82F502FA05F4C5F120058C
:100750001EBF22FA05FC44EA0C04203556EA044C7C
:100760004FEA144418BF641C4FF000084FF0000912
:10077000904271EB030C39D3002919BFB1FA81F70C
:1007800001FA07F6B0FA80F700FA07F6C7F120077A
:100790001EBF20FA07FC46EA0C062037B6FBF4FC25
:1007A000A7EB0507103F07F01F0BCBF120060CFA53
:1007B0000BFB2CFA06F644BFB3460026202FA4BF3D
:1007C0005E464FF0000B5BEA060C08BF4FF0010BD2
:1007D00019EB0B09ABFB027C48EB0608C01B06FBC0
:1007E00002CC0BFB03CC71EB0C01C1E70B460246BC
:1007F00041464846BDE8F08B13B54FF000004FF07E
:100800000001AFF30080BDE81C40704710B500F058
:10081000C3F9006810BD10B5044600F0BDF90460CE
:1008200010BD09684A0501D540B27047C905FCD51D
:1008300000B2704709684A0501D5C0B27047C905C2
:10084000FCD580B270472DE9F0470D469946924697
:10085000044600F124080168880604D5E06921F007
:100860001001216000E00120A84201DD471B00E0EB
:100870000027A1697A1902EB0900081AA061207803
:10088000C00602D42046FFF759FD002608E0D4E94F
:1008900001211AF806009047206A401C761C20624D
:1008A0004E45F4DB2078C0060AD52046FFF746FD0A
:1008B00006E0D4E9012130209047206A401C2062E4
:1008C000381EA7F10107F4DC07E0D4E9012118F88C
:1008D00005009047206A401C2062281EA5F10105F2
:1008E000F3DC2046FFF740FD2078000602D5022009
:1008F000BDE8F0870120FBE711680268006A530534
:1009000001D508700AE0D30501D5088006E013067A
:1009100003D5C217C1E9000200E00860012070475A
:1009200001694A1C02610878704700B58FB0CDE9B3
:1009300001310021059105497944CDE903101146A3
:100940006846FFF7D1FD0FB000BD0000E5FFFFFFD7
:100950000A6802F8010B0A60704710B5436913B1C9
:10096000AFF3008001E0FFF710FD012010BD127809
:1009700000F124010A7000224A700122EDE711689B
:100980004FF0FF32E9E70000074B70B50D467B449E
:10099000FFF7CBFF0446284600F06AFB10B14FF08A
:1009A000FF3070BD204670BDEB3700002DE9FF5FC2
:1009B00015468A460446DFF8AC80F8440027D8E99B
:1009C00000103E46CDE9001010E03AF816106A46D5
:1009D00002A800F051FB411C07D02178890603D5FD
:1009E000E269391891420DD80744761C20788006B8
:1009F00002D5E069B84205DDAE42E6DB3AF8160002
:100A00000028E2D1A069C01BA0612046FFF796FC38
:100A1000D8E90010CDE90010002017E03AF81810CE
:100A20006A4602A800F028FBB0F1FF3F81460BD0D8
:100A300000250DF1080B05E0D4E901211BF80500A4
:100A400090476D1C4D45F7D308F10100B042804638
:100A5000E4DB206A384420622046FFF785FCBDE8CD
:100A6000FF9F00008A8700002DE9F0418046D21DDB
:100A700022F007020025D2E90002F52915A614D0BC
:100A8000011E72F1000106DA0023D0EB030063EBD4
:100A9000020211A608E0D8F800108B0701D50FA6B6
:100AA00002E0490701D50EA601251146002408F1F0
:100AB000240704E000F074F830323A55641C50EA20
:100AC0000102F7D12B46324621464046BDE8F041AF
:100AD000FFF7B9BE000000002D0000002B00000051
:100AE0002000000030B4002100F1240408E002F0EE
:100AF0000705D208303542EA4372DB086554491CC9
:100B000052EA0305F3D10468002310A2250708D593
:100B100004F020040C4304D0C46901230CA2641E19
:100B2000C46130BCFFF78FBE10B504462146106883
:100B3000FFF780FE02462046BDE810400023D1E7C3
:100B4000D21D22F00701D1E90023CBE7000000000D
:100B5000300000004FF000020429C0F0128010F0B5
:100B6000030C00F0AB82CCF1040CBCF1020F18BFF7
:100B700000F8012BA8BF20F8022BA1EB0C0100F01C
:100B80009DBA5FEAC17C24BF00F8012B00F8012B5D
:100B900048BF00F8012B70470048704754070020F9
:100BA00030B5B0F10A024FEA900E71F100034EEA3F
:100BB000817EB0EB0E0061EB91014FEA101E4EEA10
:100BC000017E10EB0E0041EB11114FEA102E4EEAA0
:100BD000016E10EB0E0041EB11214FEA104E4EEA70
:100BE000014E10EB0E0041EB1141401841F10001A4
:100BF0004FEAD00040EA41704FEAD10110EB800586
:100C00004FEA810444EA907444EB01046D1944EB0B
:100C10000404521BA3414FF0000348BF0A3200D521
:100C200030BD401C41F1000130BD70472DE9FF4F40
:100C30000C461E464FF0FF378BB0D2E90001DDF8BD
:100C400060800A908A46C1F30A5505B93D460021E5
:100C500008464FF00000BAF1000F00F4400005DA3A
:100C600000EB80004FF4400101EA50004FEA905938
:100C7000B9F1010F00DDB9460A9850EA4A000ED0DA
:100C800044F61050A5F2FF3545432F14B8F1000F7C
:100C90001ED07542291E1EDDC9F100021CE0B8F10C
:100CA000010F4FF0000001D0302103E0F24305E0D6
:100CB0002154401CB042FBDB30460022002121546D
:100CC0000B99C1F80880C1E900200FB0BDE8F08F92
:100CD000BD1B6D1CDEE74A4600DA694206A800F03B
:100CE00089FA06AB93E8070003AB83E80700504698
:100CF0000A9900F033FB8DE80700A0F500501F387B
:100D000000900398002D09DD42F21F014A46084475
:100D100003A90390684600F092FD08E0A0F500509A
:100D20004A461F3803A90390684600F09CFD8DE8F1
:100D300007000004000C03D04FF0FF30410800E032
:100D40001046B8F1000F03D00022009215461EE0B5
:100D5000751E05D4FFF724FF303262556D1EF9D59C
:100D6000B3460122084302D000227F1C04E0207811
:100D7000302801D100227F1E002A099786D01DE06D
:100D8000112D07DAFFF70CFF303262556D1C50EA67
:100D90000102F5D1084302D00098C8B10EE000214D
:100DA000681E05E0235C625C63542254401E491CAB
:100DB0008142F7DBAB46A81B401E0990002004F8D7
:100DC0000B000B98099AC0F80880C0E9002B7CE75B
:100DD00011264FF0000859E72DE9F04F88460446E8
:100DE000D21D22F0070191B0D1E90001CDE90A013D
:100DF00001F067FF02460B98C00F01D02D2007E0DD
:100E00002068810701D52B2002E0202101EAC000E3
:100E1000032A099001D0072A05DB034641462046F4
:100E200000F0A8F90BE12078800601D5E06900E028
:100E30000620B8F1650F814606D0B8F1660F18D0CC
:100E4000B8F1670F70D131E00020B9F1110F0090B7
:100E500001DB112301E009F101030AAA01A90CA891
:100E6000FFF7E4FEDDE90C70002609F10105834679
:100E700047E001204B4600904FF000470AAA01A925
:100E80000CA8FFF7D3FEDDE90DB00C995D460026F6
:100E900010B909F101000D18B9EB050003D4C0F138
:100EA000FF3609F10105A5EB09002BE0B9F1010FAF
:100EB00001DA4FF001090020B9F1110F0090484606
:100EC00001DD112300E003460AAA01A90CA8FFF7DF
:100ED000ADFEDDE90C704D46002683462078000704
:100EE0000AD4AB4500DA5D4601A8012D04DD4119A5
:100EF00011F8011C302907D04F4502DA17F1040F11
:100F000004DA012082460FE06D1EEEE7002F02DCBE
:100F1000ED1B3E4403E0781CA84200DD7D1CB81B9D
:100F200000F1010A4FF000472078000703D4AA45DA
:100F300001DB4FF0FF3A0021B7F1004F0DF14308FC
:100F40008DF8431024D002202B23002F01DA7F429A
:100F50002D230A21021EA0F1010000DC5FB197FBE6
:100F6000F1FC97FBF1F201FB1C7C17460CF1300CF5
:100F700008F801CDEEE7A8F101000370218809050A
:100F800001D5452100E06521A0F1010800F8011C10
:100F900009980FA9A1EB0807FF1D00B10120411915
:100FA00001EBEA70A1693844081A401EA06120785C
:100FB000C00602D42046FFF7C1F9099828B1D4E948
:100FC00001219047206A401C20622078C00622D56B
:100FD0002046FFF7B3F91EE0002E04DBB34502DD27
:100FE00001A8805D00E03020D4E901219047206A0B
:100FF000401C2062761CAAF101005FEA000A0AD1B7
:1010000000F0B4F8C0680168405CD4E90121904761
:10101000206A401C2062281EA5F10105DCDC07E0E7
:10102000D4E9012118F8010B9047206A401C206286
:10103000381EA7F10107F3DC2046FFF795F90320DE
:1010400011B043E610B5436913B1AFF3008001E07E
:10105000FFF7ACFC012010BD128800F1240182844E
:101060000022C2840122EDE711684FF0FF32E9E768
:10107000007B00F08000704770B516460C460546B0
:1010800000F06CF8036893F80101012806D0FF2CEA
:101090000FD8185D68B101202C7070BDD3F807011E
:1010A0003246214603F2071303442846BDE8704048
:1010B00018474FF0FF3070BD4FF0000200B51346E7
:1010C00094469646203922BFA0E80C50A0E80C5068
:1010D000B1F12001BFF4F7AF090728BFA0E80C5019
:1010E00048BF0CC05DF804EB890028BF40F8042B12
:1010F00008BF704748BF20F8022B11F0804F18BF7F
:1011000000F8012B7047000000487047540700208A
:101110007546FFF7F9FFAE4605006946534620F0D5
:101120000700854618B020B5FFF7B2F8BDE82040AB
:101130004FF000064FF000074FF000084FF0000B93
:1011400021F00701AC46ACE8C009ACE8C009ACE846
:10115000C009ACE8C0098D467047000010B500F02A
:1011600005F8001D10BD00BF556000000048704725
:10117000740700202DE9F0411F460446032601684C
:10118000072A01F4006004DB08B116A505E016A5E6
:1011900003E008B115A500E015A521F010002060BE
:1011A000A069C01EA0610FB1401EA0612046FFF7DC
:1011B000C5F84FB1D4E9012138469047206A401C58
:1011C0002062C01C206206E0206AFAE7D4E901210F
:1011D00015F8010B9047761EF8D22046FFF7C4F8A9
:1011E000BDE8F0814E414E006E616E00494E4600F2
:1011F000696E66002DE9F047814616468AB033488D
:1012000078440DC88DE80D0030487844801C03AC4C
:101210000DC884E80D0041F69B300844372190FB4F
:10122000F1F290FBF1F5A5F1800501FB12041B3CE6
:1012300002D56442012000E00020DFF890A0804643
:101240000027FA44AAF1BE0A0DE0E00709D03246B1
:10125000684607EB47010AEB810100F004FB8DE8CB
:10126000070064107F1C002CEFD1184F7F44AC3F67
:1012700018E0E80714D007EB04100DF1180A90E805
:101280000E008AE80E00C068F04201D1981908905B
:10129000324606A903A800F0E6FA03AB83E807008C
:1012A0006D10641C002DE4D132466946B8F1000F80
:1012B00003A802D000F0C3FA01E000F0D4FAC9E9B3
:1012C0000001C9F808200AB0BDE8F0876880000076
:1012D0000446AFF300802046FEF7C5FF4FF0013C07
:1012E00050F8042B51F8043B9A4221D1A2EB0C0395
:1012F000934313EACC1317D150F8042B51F8043B55
:101300009A4215D1A2EB0C03934313EACC130BD1F1
:1013100050F8042B51F8043B9A4209D1A2EB0C037C
:10132000934313EACC13DBD04FF00000704700BFAB
:10133000D01A01BAB1FA81F101F0180122FA01F0D4
:10134000CB40C1F12001DBB2C0B2C01A2CFA01F3CC
:10135000D11A914311EAC311E6D170475FEA400CFC
:1013600008BF91F0000F4FEA8C234FEAC12243EAF5
:1013700051514FEA1C5018BF00F5F0404FEA3000C1
:1013800018BF41F000415FEA6C5C00F02980BCF1BD
:10139000FF3F08BF40F080407047130C06BF1204A7
:1013A0004FF0100C4FF0000C130E04BF12020CF1A2
:1013B000080C130F04BF12010CF1040C930F04BFAF
:1013C00092000CF1020CD30F04BF52000CF1010C7F
:1013D00011464FF00002A0F11F00A0EB0C00704777
:1013E00011F0004F08BF704731F000413FF4D5AF16
:1013F0000B0C06BF09044FF0100C4FF0000C0B0E45
:1014000004BF09020CF1080C0B0F04BF09010CF119
:10141000040C8B0F04BF89000CF1020CCB0F04BF2E
:1014200049000CF1010CCCF12003A0EB0C0022FAD6
:1014300003F302FA0CF241EA030100F101007047E4
:1014400020F07F4C80EA030023F07F47ACEB0703DA
:1014500003F57C5300F0004003F1FF032DE98049C0
:101460004FEA154B09B44FEA144325EA0B4E24EA20
:1014700003480FF2042606EB132749083E785FEA7B
:10148000320203FB0667C7F5000707FB06F64FEAC3
:1014900054374FEAD64606F1020607FB066CCCF13C
:1014A000005C4FEA1C472CEA074C07FB06F40CFBD8
:1014B00006F504EB15464FEA961634BF00204FF0B0
:1014C00000404FEAD13706FB07FC4FEA1C4C0CFBEF
:1014D0000BF7D21B03FB0CF761EB07010CFB0EF7BC
:1014E000B0EB074072EB17420CFB08F734BFA2EBDE
:1014F0000742B2EB074261EB17414FEA0C444FEA57
:10150000910706FB07FC4FEA1C4C0CFB0BF7B0EBFA
:10151000C74072EB573203FB0CF734BFA2EBC74254
:10152000B2EBC74261EB57310CFB0EF7B0EBC700D3
:1015300072EB57720CFB08F734BFA2EBC702B2EB99
:10154000C70261EB5771039F4FEA816141EA921133
:1015500004EBCC044FEAD1374FEA826206FB07FC6A
:1015600042EA90124FEA80604FEA1C4C0CFB0BF7EA
:10157000D21B03FB0CF761EB07010CFB0EF7B0EB82
:10158000074072EB17420CFB08F734BFA2EB07428F
:10159000B2EB074261EB17414FEA8C554FEA9107D6
:1015A00004EB9C2406FB07FC4FEA1C4C0CFB0BF7DE
:1015B000B0EBC74072EB573203FB0CF734BFA2EB22
:1015C000C742B2EBC74261EB57310CFB0EF7B0EBF1
:1015D000C70072EB57720CFB08F734BFA2EBC702CF
:1015E000B2EBC70261EB577115EB4C254FEA8161F5
:1015F00041EA92114FEA82624FEAD13742EA9012F1
:1016000006FB07FC44F100044FEA80604FEA1C4CE3
:101610000CFB0BF7D21B03FB0CF761EB07010CFB78
:101620000EF7B0EB074072EB17420CFB08F734BF24
:10163000A2EB0742B2EB074261EB174115EB1C1519
:101640004FEA813141EA92414FEA823242EA9042C6
:101650004FEA80304FEA0C7644F1000448EA034335
:101660004EEA0B484FF0000EB2EB080C71EB03078B
:1016700024BF624639464EEB0E0E4FF0000B0018A9
:10168000524149414BEB0B0BB2EB080C71EB0307DA
:101690007BF1000B24BF624639464EEB0E0E4FF035
:1016A000000B0018524149414BEB0B0BB2EB080CFD
:1016B00071EB03077BF1000B24BF624639464EEB0A
:1016C0000E0E51EA020718BF46F0010616EB0E7621
:1016D00055F1000254F1000103D5BDE88901BDE8D0
:1016E0000088BDE88901BDE80048B619524141EBC8
:1016F0000101A3F10103704780807F7E7D7C7B7AAE
:101700007978777676757473727171706F6E6E6DAD
:101710006C6C6B6A6A696868676666656464636353
:1017200062616160605F5F5E5E5D5D5C5C5B5B5AD9
:101730005A59595858575756565555555454535346
:1017400052525251515050504F4F4F4E4E4D4D4DA1
:101750004C4C4C4B4B4B4A4A4A49494948484847EC
:10176000474747464646454545444444444343432A
:101770004342424242414141002B26D4770021D0CE
:101780001CB54FEA370703B44FF010004FF01001BB
:101790004FF000000FBCBDE810400BF1010BBBF196
:1017A000010F08BF5FEA170722BF12F1010211F112
:1017B00001014FF0004143F1000300F0004043EA13
:1017C00000007047F9D35708DAE746EA064613F1F6
:1017D000400F4FEA16461FDD13F1200FDFBF1643FF
:1017E0000A46002120335B42C8D0C3F1200746EAF5
:1017F000064602FA07F74FEA164646EA0706C3F11D
:10180000200722FA03F201FA07F721FA03F14FF059
:10181000000342EA0702B1E746EA020646EA064644
:101820004FEA164646EA0106BCBF46EA0646360CB3
:101830004FF000034FF000024FF000019EE72DE94A
:10184000C048934630B491E8380007C831EA400CEC
:1018500048BF34EA430C03D5FFF7F2FDFFF78CFFD6
:10186000F0BCBDE800882DE9C048934630B491E84B
:10187000380007C810F0804F08BF13F0804F03D125
:1018800000F005F8FFF778FFF0BCBDE8008820F015
:101890007F4780EA030023F07F4C07EB0C03A3F59E
:1018A0007C5300F00040A3F1FE0392F0000F00F023
:1018B000B38095F0000F00F077802DE901494FEAE1
:1018C00011404FEA144621EA004800FB06FC24EAD6
:1018D000064708FB06F607FB08F800FB07F718EBBE
:1018E00006484CEB164C4FEA124B18EB07484FEAF0
:1018F00015464CEB174022EA0B4E0BFB06FC25EA83
:1019000006470EFB06F607FB0EFE0BFB07F71EEB6A
:10191000064E4CEB164C4FF000061EEB074E4CEB00
:10192000174B18EB0B0840F1000018EB0E0B58EBAF
:10193000000840F100008F1A4FF000013CBFC9437E
:10194000661B14BFB5EB040C00213CBFC943F61B5A
:101950004FEA17444EEA8E0E27EA04454FEA1C4729
:1019600004FB07622CEA074C05FB07F70CFB05F6A6
:1019700004FB0CFC16EB074642EB174216EB0C4639
:1019800042EB1C421BEB060658EB0202414146EAC1
:101990009E0601D5BDE80189B619524141EB01010E
:1019A000A3F10103BDE801894FEA14454FEA11474D
:1019B00024EA054621EA074C05FB07F406FB07F776
:1019C0000CFB06F105FB0CFC11EB074144EB174443
:1019D0004FEA124711EB0C4144EB1C4422EA074C3E
:1019E00005FB07F206FB07F70CFB06F605FB0CFCF4
:1019F00016EB074642EB174216EB0C4642EB1C4532
:101A00006A1854F1000148BF7047B619524141EBC2
:101A10000101A3F10103704795F0000F37D04FEAA1
:101A200011424FEA144721EA024624EA074C02FB1E
:101A300007F106FB07F70CFB06F402FB0CFC14EBAA
:101A4000074441EB17414FEA154714EB0C4441EBB7
:101A50001C4125EA074C02FB07F506FB07F70CFBC8
:101A600006F602FB0CFC16EB074645EB174516EB9A
:101A70000C4645EB1C42121951F1000148BF70475A
:101A8000B619524141EB0101A3F1010370474FEA3E
:101A900014454FEA114724EA054621EA074C05FBA5
:101AA00007F106FB07F70CFB06F24FF0000605FBFB
:101AB0000CFC12EB074241EB174112EB0C4251EBCD
:101AC0001C4148BF7047921841EB0101A3F101038B
:101AD000704700BFFEE770472DE9F0410246002540
:101AE0000026002000230024002791F803C00CF0FA
:101AF0000F0591F803C00CF0100CBCF1000F03D0DF
:101B000091F802C04CEA050591F800C0BCF1000F45
:101B100031D0146800202BE04FF0010C0CFA00F3D8
:101B2000B1F800C00CEA03069E4220D183004FF0BA
:101B30000F0C0CFA03F7BC4305FA03FC4CEA04044F
:101B400091F803C0BCF1280F06D14FF0010C0CFA3C
:101B500000FCC2F814C00AE091F803C0BCF1480FC1
:101B600005D14FF0010C0CFA00FCC2F810C0401C6B
:101B70000828D1D31460B1F800C0BCF1FF0F34DDE8
:101B8000546800202EE000F1080C4FF0010808FA1C
:101B90000CF3B1F800C00CEA03069E4221D1830089
:101BA0004FF00F0C0CFA03F7BC4305FA03FC4CEAA8
:101BB000040491F803C0BCF1280F05D100F1080C12
:101BC00008FA0CF8C2F8148091F803C0BCF1480F71
:101BD00007D100F1080C4FF0010808FA0CF8C2F820
:101BE0001080401C0828CED35460BDE8F08100006E
:101BF000F0B50A46002300240021002500F000462D
:101C0000B6F1004F02D11D4EF16901E01B4E716823
:101C1000C0F3034583B200F44016B6F5401F08D167
:101C200021F07061154E766826F07066134F7E6065
:101C300012E000F48016B6F5801F06D1032606FADE
:101C400005F4A14341F0706106E0460D360103FA48
:101C500006F6B14341F0706122B1460D360103FA38
:101C600006F6314300F00046B6F1004F02D1034EB4
:101C7000F16101E0014E7160F0BD00000000014023
:101C8000416170470161704700BFFEE72DE9F84FE1
:101C90006B4602224121682000F0F5F99DF8010011
:101CA0009DF8001040EA01200FFA80FA504605F036
:101CB000D5FC804600220B4B05F078FB06460A4A0D
:101CC0000A4B05F0C3FA044605F08EFA834608492C
:101CD000584606F0E1F9044606F042F900B2BDE8C4
:101CE000F88F000000407540A4703D0AD743424081
:101CF0000000C84210B500200E4908600E48006878
:101D000020F470400C4908600846006840F44050D8
:101D1000086000200949C1F8AC0100F011F8012069
:101D20000449086000F00CF800200449C1F8A8013B
:101D300010BD0000A8812142040C01400080214216
:101D400010B5042001F01AFC10BD000008B50121F7
:101D5000082000F015FB4FF44060ADF800001020A3
:101D60008DF8030003208DF8020069460448FFF750
:101D7000B3FE4FF440610248FFF784FF08BD000046
:101D8000000C014010B500200E4908600E480068A4
:101D900020F470400C4908600846006840F4405048
:101DA000086001200949C1F8AC01FFF7C9FF012013
:101DB00004490860FFF7C4FF00200449C1F8A801E6
:101DC00010BD0000A8812142040C01400080214286
:101DD00070B5054600241648006820F47040144988
:101DE00008600846006840F400400860002614E0DF
:101DF000002010490860FFF7A3FF01200E49C1F839
:101E0000A8016006040E0B487C38006808B1601C0D
:101E1000C4B2FFF795FF701CC6B2082EE8DB15B9F7
:101E2000FFF7B0FF01E0FFF765FF204670BD00003F
:101E3000040C0140A88121420080214270B5044673
:101E40001248006820F47040104908600846006895
:101E500040F44050086000200D490860002512E061
:101E6000E0090B49091D08606006040E01200949BC
:101E7000C1F8A801FFF764FF002005490860FFF7DB
:101E80005FFF681CC5B2082DEADB70BD040C014081
:101E9000A88121420080214210B50E48006820F43C
:101EA00070400C4908600846006840F440500860E3
:101EB0000120094908600949C1F8A801FFF740FF5E
:101EC000002005490860FFF73BFF00200349C1F8E7
:101ED000A80110BD040C0140AC81214200802142C8
:101EE00010B50E48006820F470400C4908600846A0
:101EF000006840F440500860002009490860094922
:101F0000C1F8AC01FFF71CFF012005490860054935
:101F1000C1F8AC01FFF714FF10BD0000040C014034
:101F2000A88121420080214210B500241448006895
:101F300020F47040124908600846006840F40040F0
:101F4000086001200F490860FFF7FAFE01200E49E2
:101F5000C1F8A801FFF7F4FE07E0601CC4B2FA2C38
:101F600003DDFFF7BDFF012010BD06488038006883
:101F70000028F2D10349091F086000BFF4E7000000
:101F8000040C0140AC8121420080214238B501217E
:101F9000084600F0F5F90121042000F0F1F94FF4B2
:101FA0000040ADF8000010208DF8030003208DF8EC
:101FB000020069462248FFF78FFD01212148FFF703
:101FC00017FE002020490860FFF7C0FE80216B202B
:101FD00000F0DDF8642001F0ABFA00216B2000F086
:101FE000D6F8032000F091F8002000F086F83220A7
:101FF00000F0B0F80021382000F0C9F800216A2074
:1020000000F0C5F80021232000F0C1F8802137201E
:1020100000F0BDF8752000F019F80446682C0BD1CB
:1020200001216B2000F0B3F800216C2000F0AFF824
:10203000322000F08FF801E0012038BD0020FCE7DD
:102040000008014000023000BC01214270B5044686
:10205000FFF722FFD020FFF7F1FEFFF765FF2046D4
:10206000FFF7ECFEFFF760FFFFF716FFD120FFF749
:10207000E5FEFFF759FF0020FFF7AAFE0546FFF730
:102080002FFF284670BD2DE9F04106460F46144645
:102090001D46FFF701FF002141EA4601C8B2FFF7E4
:1020A000CDFEFFF741FF20B1FFF71AFF0120BDE889
:1020B000F0813846FFF7C2FEFFF736FFFFF7ECFE70
:1020C000012101EB4601C8B2FFF7B8FEFFF72CFF74
:1020D0000DE0012C04D10020FFF77AFE287003E008
:1020E0000120FFF775FE2870601EC4B26D1C002C25
:1020F000EFD1FFF7F5FE0020D9E710B50446E00662
:10210000010E1C2000F043F810BD10B50446E00697
:10211000010E1B2000F03BF810BD70B504460025F1
:10212000BC2C01DB012510E0622C01DB02250CE058
:102130002A2C01DB032508E0142C01DB042504E034
:102140000A2C01DB052500E0062529461A2000F0AF
:102150001EF870BD70B50446B4F57A7F01DD4FF40A
:102160007A74042C00DA04244FF47A7090FBF4F0B3
:10217000401EC5B22946192000F009F8054626463A
:1021800004EBD671C1F34F00FFF7C7FF70BD70B508
:1021900005460C46FFF780FED020FFF74FFEFFF705
:1021A000C3FE18B1FFF79CFE012070BD2846FFF763
:1021B00045FEFFF7B9FE2046FFF740FEFFF7B4FEED
:1021C00018B1FFF78DFE0120EFE7FFF789FE002031
:1021D000EBE72DE9F04105460E4617469846FFF716
:1021E0005BFE002141EA4501C8B2FFF727FEFFF779
:1021F0009BFE20B1FFF774FE0120BDE8F081304660
:10220000FFF71CFEFFF790FE00240CE018F8040016
:10221000FFF714FEFFF788FE18B1FFF761FE0120FB
:10222000EBE7601CC4B2BC42F0DBFFF759FE0020B4
:10223000E3E700BFFEE7704770B5002100230F22DF
:10224000C47804B3154C246804F4E064C4F5E06475
:10225000210AC1F10403CA40447804FA03F18478E6
:102260001440214309010E4C0678A155047804F06E
:102270001F050124AC4005786D11AD0005F1E02586
:10228000C5F8004109E0047804F01F050124AC40C2
:10229000044D0678761145F8264070BD0CED00E03F
:1022A00000E400E080E100E002490143024A1160DD
:1022B000704700000000FA050CED00E008B50121B0
:1022C0000C2000F05DF80220ADF8000010208DF821
:1022D000030003208DF8020069461648FFF7FCFB57
:1022E0004020ADF8000069461348FFF7F5FB4FF4B6
:1022F0008070ADF8000069460F48FFF7EDFB4FF422
:102300000060ADF8000069460B48FFF7E5FB0221CD
:102310000848FFF7B7FC40210748FFF7B3FC4FF42C
:1023200080710548FFF7AEFC4FF400610248FFF7EB
:10233000A9FC08BD000C01400008014070470000E6
:1023400029B1064AD2690243044BDA6104E0034A28
:10235000D2698243014BDA617047000000100240ED
:1023600029B1064A12690243044B1A6104E0034A88
:1023700012698243014B1A6170470000001002404D
:1023800029B1064A92690243044B9A6104E0034A68
:1023900092698243014B9A6170470000001002402D
:1023A00029B1064AD2680243044BDA6004E0034ACA
:1023B000D2688243014BDA6070470000001002408F
:1023C00030B500210022002400232D4D6D6805F05A
:1023D0000C0121B1042905D0082923D105E0294D9C
:1023E000056022E0274D05601FE0254D6D6805F46E
:1023F0007012234D6D6805F48034022505EB92427E
:102400001CB9214D554305600BE01D4D6D6805F469
:1024100000351DB11C4D5543056002E0194D554373
:10242000056002E0174D056000BF00BF144D6D68E8
:1024300005F0F0010909154D6B5C0568DD4045604C
:102440000F4D6D6805F4E061090A104D6B5C45683D
:10245000DD4085600A4D6D6805F46051C90A0B4D79
:102460006B5C4568DD40C560054D6D6805F4404115
:10247000890B074D6B5CC568B5FBF3F5056130BD95
:102480000010024000127A0000093D006E0000209A
:102490007E000020704710B500F002F810BD00006B
:1024A0000CB50020019000903348006840F4803063
:1024B0003149086000BF3048006800F400300090E7
:1024C0000198401C0190009818B90198B0F5A06FD0
:1024D000F1D12948006800F4003010B101200090CB
:1024E00001E0002000900098012843D123480068B3
:1024F00040F01000214908600846006820F0030001
:1025000008600846006840F0020008601A48406809
:10251000194948600846406848600846406840F4E9
:10252000806048600846406820F47C104860084697
:10253000406840F4E81048600846006840F0807049
:10254000086000BF0C48006800F000700028F9D057
:102550000948406820F00300074948600846406881
:1025600040F00200486000BF0348406800F00C00E3
:102570000828F9D10CBD00000010024000200240E4
:10258000042808D14FF0E021096941F004014FF01F
:10259000E022116107E04FF0E021096921F0040118
:1025A0004FF0E022116170477047000010B51348EA
:1025B000006840F001001149086008464068104971
:1025C00008400E494860084600680E4908400B491B
:1025D00008600846006820F48020086008464068CB
:1025E00020F4FE0048604FF41F008860FFF753FF9F
:1025F0004FF000600449086010BD00000010024068
:102600000000FFF8FFFFF6FE08ED00E010B5012125
:10261000880700F011F970B10748008840F40040C5
:10262000054908800121880700F0EBF800214FF0F0
:10263000804000F0E9F810BD600000207FB505463D
:102640000C4601210846FFF77BFEADF80450ADF8BB
:1026500000400020ADF80600ADF8020069464FF0DA
:10266000804000F007F901221146900700F0F5F8CC
:102670000121880700F0C8F81C208DF80C0000200C
:102680008DF80D0002208DF80E0001208DF80F004E
:1026900003A8FFF7D1FD7FBD10B501212A4800F046
:1026A000CBF800284ED029480088401C27490880D4
:1026B000084600880A2801D10020088023480088A5
:1026C00023490988884204DA40212248FFF7DAFAD0
:1026D00003E040211F48FFF7D3FA1C4800881E4939
:1026E0000988884205DA4FF480711A48FFF7CAFA60
:1026F00004E04FF480711748FFF7C2FA13480088CE
:1027000016490988884205DA4FF400611148FFF73D
:10271000B9FA04E04FF400610E48FFF7B1FA0B4834
:1027200000880F490988884204DA02210D48FFF722
:10273000A9FA03E002210B48FFF7A2FA012102489F
:1027400000F05FF810BD0000000400405E000020B3
:102750000C000020000801400E00002010000020A6
:1027600012000020000C01407FB505460C460121F7
:102770000220FFF7E5FDADF80450ADF80040002061
:10278000ADF80600ADF8020069460D4800F072F899
:10279000012211460A4800F060F80121084800F0C3
:1027A00033F81D208DF80C0000208DF80D0001205D
:1027B0008DF80E008DF80F0003A8FFF73DFD7FBDDB
:1027C0000004004010B501210A4800F035F8012846
:1027D0000AD10949086980470021064800F048F8F5
:1027E0006421044800F042F80121024800F009F891
:1027F00010BD000000080040D8000020CA4302823B
:102800007047CA430282704721B1028842F0010238
:10281000028004E002884FF6FE731A40028070477F
:102820000146888C704702460020138A0B400BB18A
:10283000012000E00020704730B502460020002350
:102840000024158A05EA0103958905EA010413B1FC
:102850000CB1012000E0002030BD1AB183890B4388
:10286000838102E083898B43838170478185704730
:1028700081847047002202881D4B98420ED01D4B68
:1028800098420BD0B0F1804F08D01B4B984205D036
:102890001A4B984202D01A4B984204D14FF68F73CC
:1028A0001A404B881A43174B984207D0164B984250
:1028B00004D04FF6FF431A40CB881A4302808B881E
:1028C00083850B8803850A4B98420BD0094B9842AD
:1028D00008D00E4B984205D00D4B984202D00D4BBC
:1028E000984201D10B7A038601238382704700004E
:1028F000002C01400034014000040040000800406A
:10290000000C004000100040001400400040014056
:1029100000440140004801407FB505460C460121B6
:102920000420FFF70DFDADF80850ADF8044000207D
:10293000ADF80A00ADF8060001A90D48FFF79AFFAF
:10294000012241210A48FFF788FF1E208DF8000070
:1029500003208DF801008DF8020001208DF803009E
:102960006846FFF769FC01210148FFF74DFF7FBD75
:102970000008004010B540F225511D4800F0DBF87A
:1029800010B31B4800F092F9C4B21A48008800F452
:102990000040C8B91748008800F4804060B10A2C94
:1029A00003D000201349088020E01248008840F43A
:1029B00000401049088019E00D2C06D10D48008810
:1029C00040F480400B49088010E00A480088C0F3BA
:1029D0000D0009490C5407480088401C054908802F
:1029E00008460088C72801DD0020088010BD0000CF
:1029F000003801406C0000208C06002010B540F229
:102A00002551164800F097F800B3144800F04EF92D
:102A1000C4B21348008800F40040B8B910480088D8
:102A2000B0F5167F13DA00214FF08040FFF720FF4A
:102A30000B48008818B901218807FFF7E5FE08490F
:102A40000888411C064A118006490C5405E00448D8
:102A5000008840F400400249088010BD0044004056
:102A600060000020DC01002021B1828942F4005284
:102A7000828104E082894DF6FF731A40828170479B
:102A800010B504462048844209D101218803FFF78C
:102A900087FC00214FF48040FFF782FC32E01B48A6
:102AA000844209D101214804FFF75AFC00214FF468
:102AB0000030FFF755FC25E01548844209D101217B
:102AC0008804FFF74DFC00214FF48020FFF748FCFD
:102AD00018E01048844209D10121C804FFF740FCE6
:102AE00000214FF40020FFF73BFC0BE00A48844232
:102AF00008D101210805FFF733FC00214FF48010B5
:102B0000FFF72EFC10BD00000038014000440040DB
:102B100000480040004C00400050004002460020A9
:102B2000B1F5007F00D100BF13880B400BB101202D
:102B300000E00020704770B5024600240023002505
:102B4000002040F66A16B14200D100BFC1F3421521
:102B500001F01F03012606FA03F3012D02D1968925
:102B6000334006E0022D02D1168A334001E0968AF6
:102B700033400C12012606FA04F41688344013B1CF
:102B80000CB1012000E0002070BDF0B50346002428
:102B900000260025002040F66A17B94200D100BF88
:102BA0001846C1F3421401F01F06012707FA06F583
:102BB000012C01D10C3004E0022C01D1103000E0D6
:102BC00014301AB107682F43076002E00768AF436B
:102BD0000760F0BD2DE9F04786B005460E4600249B
:102BE000A24600BFA1460027B08900B100BF2F4612
:102BF0002C8A4CF6FF700440F08804432C82AC8988
:102C00004EF6F3100440B0883189084371890843B7
:102C10000443AC81AC8A4FF6FF400440B0890443C2
:102C2000AC8201A8FFF7CCFB1F48874202D1DDF838
:102C300010A001E0DDF80CA0A88900F4004040B12C
:102C40000AEBCA0000EB0A1031684900B0FBF1F84A
:102C500007E00AEBCA0000EB0A1031688900B0FBFC
:102C6000F1F86420B8FBF0F004012009642101FBB5
:102C70001089A88900F4004040B1322000EBC9005F
:102C8000B0FBF1F000F00700044308E0322000EB55
:102C900009106421B0FBF1F000F00F0004432C8117
:102CA00006B0BDE8F0870000003801400146888882
:102CB000C0F308007047C1F308028280704700BF6C
:102CC000FEE7490050EAC12018BF04204A0D18BF92
:102CD00040F0010040F2FF72B2EB515F08BF40F0DC
:102CE0000200012808BF052070472DE9F0414F1E62
:102CF00000EBC7010446D1E9000115461E4637F036
:102D000006020DD02A46334604F0C0FC7F1E04EBB9
:102D1000C703D3E9002304F099FA37F00602F1D192
:102D2000022F25D0042F13D0062F18BFBDE8F08145
:102D30002A46334604F0AAFCD4E90A2304F086FAB2
:102D40002A46334604F0A2FCD4E9082304F07EFAB4
:102D50002A46334604F09AFCD4E9062304F076FAB6
:102D60002A46334604F092FCD4E9042304F06EFAB8
:102D70002A46334604F08AFCD4E9022304F066FABA
:102D80002A46334604F082FCD4E90023BDE8F04132
:102D900004F05CBA012205F026BB04F057BA002209
:102DA00013461046114604F001BB0000024A002001
:102DB000110705F018BB000001FDFFFF30380A289D
:102DC00001D20120704700207047014600BF7047C4
:102DD0002DE9FE4F06460F460025684601F0DCF956
:102DE000002442E056F8240057F82410A0EB010A12
:102DF000BAF1000F01DB514601E0CAF100010846BB
:102E000005F0EAF883464FF08F4104F0B3FF8046A7
:102E10005DF82400002105F06FF816D05DF824104D
:102E2000404604F0A7FF82464FF07E5105F032FA8B
:102E3000814629F0004A0F48416A504605F0F8F9EA
:102E400012D20120A04005430EE00A48C169404665
:102E500005F0EEF805D30748016A404605F0E8F9A9
:102E600002D20120A0400543641C032CBADB284693
:102E7000BDE8FE8F9C8400082DE9F04D8D4F21F0B8
:102E8000004A86B005460C46BA452ADBAAEB070085
:102E900028430AD08848824501DC1AD1CDB106B05A
:102EA0002846BDE8F04DFFF775BF844A844B28469D
:102EB00004F0ECFB07460E46824A834B2846214627
:102EC00004F0E4FB06B03A463346BDE8F04D04F0AA
:102ED000BDB90120FDF79FFC06B0BDE8F04DFFF73E
:102EE0005EBF7A48824542DABAF1795F0BDA28464A
:102EF000FFF7E7FE042808BFFFF758FF284606B093
:102F00002146BDE8F08D2A460B46104604F0BEFB74
:102F1000834602466E480E460B4606217844FFF76C
:102F2000E4FE5A46334604F0B1FB804669488A46BF
:102F30005A46334604217844FFF7D7FE5A463346B3
:102F400004F0A4FB00223B4604F080F902460B4645
:102F50004046514604F02AFA2A46234604F096FBDE
:102F600006B02A462346BDE8F04D04F06FB9284666
:102F700024F0004100223D463B4604F085FC4FF022
:102F8000FF3205F030FA0646024653480F460B461C
:102F900006217844FFF7A9FE32463B4604F076FB53
:102FA000CDE900014D4832463B4604217844FFF705
:102FB0009CFE32463B4604F069FB00222B4604F09F
:102FC00045F9834602913046394602F063FF804658
:102FD00043480D46504517DCDDE900015A46029B87
:102FE00004F0E4F942462B4604F050FB42462B46DF
:102FF00004F02CF9012205F0F6F9304A304B04F0C8
:1030000035FD304A304B4CE04FF0000A52460B463B
:10301000404604F01BF9CDE9031052462B461046FA
:10302000194604F033FB32463B4604F02DFCDDE943
:10303000033204F0BBF906460F46DDE900015A46AB
:10304000029B04F0B3F983460091012230463946D1
:1030500005F0C9F9194A1A4B04F016FC06460F464A
:1030600001224046294605F0BEF95A46009B04F06D
:103070000DFB32463B4604F0F9FC06460F460122A2
:103080005046294605F0AFF90E4DDFF858802A4624
:10309000434604F0F9FB32463B4604F0F5FB2A4672
:1030A000434604F0F1FB002CD8BF81F0004106B08C
:1030B000BDE8F08D0000F03F0000F07F075C1433A6
:1030C00026A6913C182D4454FB21F93F0000E03F17
:1030D000D8610000EE6100006261000078610000CC
:1030E0003333EF3FFB21E93F2DE9F84F04460D460E
:1030F00021F0004000917349814211DC72498842FD
:1031000001DC06D12CB120462946BDE8F84FFFF777
:1031100041BE6E48002DCCBF6D496E49BDE8F88FA9
:103120006D49814211DD6D498142D8BF4FF0FF36B4
:103130006DDD20462946FFF7C4FD042808BFFFF7D0
:1031400035FE20462946BDE8F88F6549654F25F0D4
:103150000045814233DD6449814219DD0026324653
:103160004FF080432046294604F070F880468A4696
:1031700001222046294605F036F900223B4604F09C
:1031800075FC4246534604F011F904460D463EE0F4
:1031900001260022BA463B462046294604F056F84E
:1031A00080460F46002253462046294604F05EFC26
:1031B00042463B4604F0FAF804460D4627E04B49E8
:1031C00081421BDDDFF828A102260022534620465B
:1031D000294604F05BFA00223B4604F037F88046AB
:1031E0000F46002253462046294604F03FFC424643
:1031F0003B4604F0DBF804460D4608E00326224671
:103200002B4600203B4904F0D1F804460D462246E7
:103210002B461046194604F039FA8B468246024680
:103220000B4604F033FA07460246334888460B46FD
:1032300006217844FFF759FD52465B4604F026FA12
:1032400082462E488B463A46434605217844FFF78E
:103250004CFD3A46434604F019FA02460B46002E4E
:10326000504659460CDA03F0F1FF22462B4604F093
:103270000DFA01B022462B46BDE8F04F04F004BB26
:1032800003F0E4FF22462B4604F000FA1C4A7A447D
:1032900002EBC603D3E9002304F0E8FB22462B46E9
:1032A00004F0E4FB174A7A4402EBC603D3E9002397
:1032B00004F0EAFA009A002AB8BF81F00041BDE8A4
:1032C000F88F0000000010440000F07F182D4454D7
:1032D000FB21F93FFB21F9BF0000DC3F0000203E4D
:1032E0000000F33F0000F03F0000E63F0080034095
:1032F0000000F83F0000F0BF825F0000405F000068
:10330000DE5E0000A65E00002DE9F04D9446CCF193
:10331000000423F000464CEA0404524F46EAD474F9
:103320009A46884621F00042BC4206D8454240EA0F
:10333000050442EAD474BC4204D9BDE8F04D6246AB
:10334000FFF72BBDAAF14055A5F17F6555EA0C04A6
:103350000BD0022404EAAA74434DDFF810E144EADA
:10336000D87452EA000B04D00CE0BDE8F04DFFF732
:10337000BBBE002C14BF012CBDE8F08D022C30D058
:10338000032C32D056EA0C0B0AD0BE4220D1BA42EE
:1033900009D126F0804622F080423346114617E0DC
:1033A00000291ADB25E0DFF8C8B0FB44002C04BF7D
:1033B000DBE90001BDE8F08D012C02BFDBE9000173
:1033C00081F00041BDE8F08D022C0AD0032C0CD016
:1033D000BA4212D1B8F1000F0BDA23482549BDE8F3
:1033E000F08D28462449BDE8F08D28467146BDE899
:1033F000F08D1D482149BDE8F08D921B12153C2A25
:10340000C4BF19481D490EDCBAF1000FBEBF12F14E
:103410003C0F0020014606DB624603F0C7FF21F0A7
:103420000041FFF761FE002C08BFBDE8F08D012CC4
:1034300004BF81F00041BDE8F08D114A114B022C10
:1034400007D004F013FB2A46BDE8F04D0A4B04F008
:103450000DBB04F00BFB2A46BDE8F04D064B04F013
:1034600013BA00000000F07F182D4454FB2109C05E
:103470003A5E0000FB21F9BFFB210940FB21F93F27
:10348000075C143326A6A13C2DE9F0410446E07800
:1034900000F0C006E07800F03F05607800F0010021
:1034A00098B1EF102846E91705EB5171C910A5EB4B
:1034B000C101491C01F0FF080B48006820B10A480F
:1034C000414602683846904700BF607800F0080027
:1034D00030B10548406818B1B011034A51688847B7
:1034E0000020BDE8F0810000CC01002010B56FF095
:1034F0000400FFF745F80A4800680A49B0FBF1F0FC
:10350000094908700846007800EB4001C1EBC01083
:103510004FF6FF7101EAC0000449088010BD0000A9
:103520001400002000127A006200002064000020D5
:103530000146114A12884A434FF0E0235A610022A3
:103540009A611A46126942F001021A6100BF4FF0F7
:10355000E022106900F001021AB100F48032002A62
:10356000F5D04FF0E022126922F001024FF0E02383
:103570001A6100229A617047640000200146114AD6
:1035800012784A434FF0E0235A6100229A611A46AA
:10359000126942F001021A6100BF4FF0E022106987
:1035A00000F001021AB100F48032002AF5D04FF089
:1035B000E022126922F001024FF0E0231A6100229A
:1035C0009A6170476200002038B5044664B120203B
:1035D0008DF8000028208DF8010030208DF80200C1
:1035E00038208DF8030004E0A32204216846FDF78B
:1035F0008AF86A46042140F69E2002F075FB01F02D
:103600005FFF38BD3EB5044602208DF80000CA2099
:103610008DF80100E3208DF8020009208DF80300E9
:103620006A460421682002F05FFBA3208DF80000A9
:1036300004F0400048B1C0208DF80100C8208DF88A
:103640000200C2208DF8030006E0A3208DF80100DF
:103650008DF802008DF8030004F4C07048B1C42056
:103660008DF80400CC208DF80500C6208DF80600EA
:1036700006E0A3208DF804008DF805008DF8060003
:10368000A3208DF807008DF808008DF809006A4620
:103690000A2140F6A72002F027FB04F0030018B12E
:1036A00020208DF8000002E0D8208DF800006A4646
:1036B000012140F6B62002F017FB04F0200018B1FB
:1036C000012000F0ADF802E0002000F0A9F804F4B9
:1036D000C07008B304F4807060B1B2208DF80000AF
:1036E0008B208DF80100B6208DF802009B208DF80C
:1036F00003000BE0B0208DF8000080208DF8010061
:10370000B4208DF8020090208DF803006A46042151
:1037100040F6A22002F0E8FA04F0010020B3F820FD
:103720008DF800006A4601214FF40B6002F0DCFACC
:10373000FA21072000F02CFC072000F0F3FB012009
:1037400000F013FC642000F0F3FC4FF4FA7000F07A
:1037500002FDC821304800F0A3FB282000F0BCFB8C
:103760000A2000F0CCFB08E0D8208DF800006A4663
:1037700001214FF40B6002F0B7FA04F0020018B117
:10378000D9208DF8000002E0D8208DF800006A46AC
:10379000012140F23D7002F0A7FA04F0040018B1D4
:1037A000012000F069F802E0002000F065F804F064
:1037B000100018B10120FFF707FF02E00020FFF71B
:1037C00003FF44F008001549488101F079FE00200C
:1037D0001249887304F0400018B10846807B801DB0
:1037E000887304F4C07020B10C48807B801D0B49A5
:1037F000887304F0140020B10848807B103007491A
:10380000887304F0030020B10448807B001D034945
:10381000887300203EBD000009E3CA02CC010020ED
:103820003EB504466CB10EA1D1E900208968CDE90E
:10383000002002916A4609214FF4976002F054FA81
:103840003EBD0AA2D2E900109268CDE901020091C2
:103850006A4609214FF4976002F046FAF0E700004B
:10386000B8AAB38DB4980D355D000000B8AAAAAA15
:10387000B088C3C5C700000038B5044664B1C02095
:103880008DF80000C2208DF80100C4208DF80200E0
:10389000C6208DF8030004E08B2204216846FCF763
:1038A00032FF6A46042140F6982002F01DFA01F02A
:1038B00007FE38BD10B5C8234FF48062024940F6B8
:1038C000F63001F091FC10BDC48400082DE9F04FE2
:1038D0008DB00746884615469946DDE9166B0024EB
:1038E000002030806B49887B5A4605A901F048FDCD
:1038F00018B1601E0DB0BDE8F08F6648807A00F008
:103900001400002867D09DF8140000069DF81510DB
:1039100040EA01409DF8161040EA01209DF817107A
:10392000084328609DF8180000069DF8191040EA29
:1039300001409DF81A1040EA01209DF81B10084331
:1039400068609DF81C0000069DF81D1040EA0140CB
:103950009DF81E1040EA01209DF81F100843A86042
:103960009DF8200000069DF8211040EA01409DF8D6
:10397000221040EA01209DF823100843E86004F17A
:103980001000C4B228680014019068680014029006
:10399000A86800140390E86800140490019840435C
:1039A000029901FB0100039901FB0100049901FB4D
:1039B000010ABAF1706F02DBBAF1885F05DD01F030
:1039C0007FFD00203080401E94E7B6F9000040F4EF
:1039D0008070308000BF2F48807A00F0400020B314
:1039E00005A9601C085C095D40EA012000B2A8F846
:1039F000000005A9E01C095C05AAA01C105C41EAB6
:103A0000002000B2A8F8020005A9601D095C201D75
:103A1000105C41EA002000B2A8F80400A01DC4B266
:103A2000B6F9000040F0080030801A48408900F4E0
:103A3000C07008B305A9601C085C095D40EA01205C
:103A400000B2388005A9E01C095C05AAA01C105C26
:103A500041EA002000B2788005A9601D095C201DA4
:103A6000105C41EA002000B2B880A01DC4B2B6F9D3
:103A7000000040F0700030800648807A00F00300BB
:103A800018B105A90819FFF7FFFC484601F03EF8F8
:103A900000202FE7CC01002070B588B0064601A8B1
:103AA00001F0F6F9BDF804000021C90341EA5045D0
:103AB000C4034448007A00F0030056F82000059043
:103AC0004048007A00F0040010B10598404205908B
:103AD0003C48007AC0F3C10056F8200006903948EF
:103AE000007A00F0200010B1069840420690354858
:103AF000007AC0F3811056F8200007903148008901
:103B000000F4807010B10798404207900598C117E3
:103B1000A0FB042301FB043100FB0510810041EAF6
:103B2000927005900698C117A0FB042301FB043195
:103B300000FB0510810041EA927006900798C117BA
:103B4000A0FB042301FB043100FB0510810041EAC6
:103B5000927007900598000E8DF808000598000CEB
:103B60008DF809000598000A8DF80A000598C0B282
:103B70008DF80B000698000E8DF80C000698000CCE
:103B80008DF80D000698000A8DF80E000698C0B258
:103B90008DF80F000798000E8DF810000798000CA4
:103BA0008DF811000798000A8DF812000798C0B22E
:103BB0008DF8130002AA0C214FF4257002F094F83E
:103BC00008B070BDCC01002030B585B0044616A207
:103BD00007CA02AB07C3C82C03DD4FF0FF3005B0A6
:103BE00030BDC82090FBF4F0401E85B2280A8DF845
:103BF0000000E8B28DF801006A46022140F216206A
:103C000002F072F810B14FF0FF30E8E702AA0C2181
:103C100040F6C12002F068F810B14FF0FF30DEE747
:103C2000044884810020DAE7FEF2ABC4AAF1DFDFAA
:103C3000BBAFDFDFCC0100201FB504464848007A47
:103C400000F0030054F8200001904548007A00F08D
:103C5000040010B10198404201904148007AC0F33D
:103C6000C10054F8200002903D48007A00F0200086
:103C700010B10298404202903948007AC0F3811096
:103C800054F8200003903648008900F4807010B189
:103C90000398404203903349019880FB0101800F53
:103CA00040EA810001902F49029880FB01108200B8
:103CB00042EA917002902B49039880FB0110820028
:103CC00042EA917003900198000E8DF8000001986F
:103CD000000C8DF801000198000A8DF8020001988F
:103CE000C0B28DF803006A4604214FF4747001F0ED
:103CF000FBFF18B14FF0FF3004B010BD0298000E6A
:103D00008DF800000298000C8DF801000298000A5E
:103D10008DF802000298C0B28DF803006A460421B3
:103D20004FF4757001F0E0FF10B14FF0FF30E3E7A2
:103D30000398000E8DF800000398000C8DF8010028
:103D40000398000A8DF802000398C0B28DF80300B2
:103D50006A4604214FF4767001F0C6FFCCE70000FC
:103D6000CC01002009E3CA0210B586B0044647A082
:103D70000068039046A00068029046A00068019089
:103D800045A00068009004F0030003A9085C8DF8CA
:103D9000140003A8C4F3C101405C8DF8150003A80A
:103DA000C4F38111405C8DF8160004F0030002A9F1
:103DB000085C8DF8100002A8C4F3C101405C8DF8C6
:103DC000110002A8C4F38111405C8DF8120005AA0D
:103DD000032140F2264001F087FF18B14FF0FF3079
:103DE00006B010BD04AA032140F22A4001F07CFF76
:103DF00010B14FF0FF30F3E7019805900098049060
:103E000004F0040058B19DF8140040F001008DF852
:103E100014009DF8100040F001008DF8100004F02F
:103E2000200058B19DF8150040F001008DF81500F4
:103E30009DF8110040F001008DF8110004F480702D
:103E400058B19DF8160040F001008DF816009DF85D
:103E5000120040F001008DF8120005AA03214FF472
:103E6000886001F041FF10B14FF0FF30B8E704AABD
:103E7000032140F2314001F037FF10B14FF0FF3025
:103E8000AEE7064804810020AAE700004CCD6C0094
:103E90000CC92C003656760026466600CC01002060
:103EA000F8B505460E464FF47A7095FBF0F000FB2E
:103EB00006F4200E8DF80000200C8DF80100200A79
:103EC0008DF80200E0B28DF803006A4604214FF439
:103ED000AE7001F009FFF8BD38B50446052094FB2B
:103EE000F0F084B220128DF80000E0B28DF80100ED
:103EF0006A4602214FF4AD7001F0F6FE38BD38B5C8
:103F00000446052094FBF0F084B220128DF80000E6
:103F1000E0B28DF801006A4602214FF4AC7001F066
:103F2000E3FE38BD38B504460020009004F00100DF
:103F300020B19DF8000040F03000009004F0020035
:103F400020B19DF8000040F00C00009004F0040047
:103F500020B19DF8000040F0030000906A46012166
:103F60004FF4A47001F0C0FE38BD38B50446012CF2
:103F700001DA012402E0042C00DD0424601EC0B23A
:103F800000906A46012140F24F1001F0ADFE38BDAD
:103F90002DE9FC4706460F4606F0070010B1B7F5BD
:103FA000C86F03DD4FF0FF30BDE8FC87384604F0F2
:103FB0002BF88146594903F0DDFE8046684600F043
:103FC00041FF9DF80000022806D0042816D00828DA
:103FD00026D0102848D135E04FF08D41404604F0FE
:103FE0005BF8814603F0D8FF84B24D49404604F0A7
:103FF00053F8814603F0D0FF85B238E04FF08C4192
:10400000404604F049F8814603F0C6FF84B24549B2
:10401000404604F041F8814603F0BEFF85B226E039
:104020004FF08B41404604F037F8814603F0B4FF6F
:1040300084B23D49404604F02FF8814603F0ACFFBE
:1040400085B214E04FF08A41404604F025F88146DD
:1040500003F0A2FF84B23549404604F01DF88146C2
:1040600003F09AFF85B202E04FF0FF309CE700BFFB
:1040700020128DF80400E0B28DF8050028128DF8AA
:104080000600E8B28DF8070006F00100A0B101AA11
:1040900002214FF4EA7001F027FE10B14FF0FF301B
:1040A00082E70DF1060202214FF4927001F01CFE2E
:1040B00010B14FF0FF3077E706F00200A0B101AA7F
:1040C00002214FF4EC7001F00FFE10B14FF0FF3001
:1040D0006AE70DF1060202214FF4947001F004FE2C
:1040E00010B14FF0FF305FE706F00400A0B101AA65
:1040F00002214FF4EE7001F0F7FD10B14FF0FF30E8
:1041000052E70DF1060202214FF4967001F0ECFD2A
:1041100010B14FF0FF3047E7002045E7000048436B
:10412000000040460000C045000040450000C0447B
:1041300038B50446052094FBF0F085B228128DF8BE
:104140000000E8B28DF801006A4602214FF4EF70DA
:1041500001F0CAFD38BD38B50446052094FBF0F0E7
:1041600085B228128DF80000E8B28DF801006A4689
:1041700002214FF4ED7001F0B7FD38BD00BF054AD4
:10418000128802F04002002AF9D0C2B2014B1B1D76
:104190001A807047003801407CB5054628494968B7
:1041A000087801AB04220D21FDF76DFF08B107204F
:1041B0007CBD9DF80700C0F301109DF8041001F0CC
:1041C000E00140EAE1008DF800009DF80700C0F32F
:1041D00081009DF8051001F0E00140EAE1008DF852
:1041E00001009DF8070000F003009DF8061001F0A3
:1041F000E00140EAE1008DF8020000241CE01DF817
:10420000040018B9002045F8240013E00D4845F8D3
:10421000240006E055F824000B4903F03DFF45F863
:1042200024001DF80400401EC0B20DF80400002850
:10423000F0D100BF601CC4B2032CE0DB0020B7E764
:10424000280000207B14AE3E1D5A843F2DE9F04F1C
:1042500087B005460C46914601208DF810000020DD
:104260008DF81100FE4A1268917CFD4A5268107860
:1042700004AB0222FDF7ADFF20B14FF0FF3007B0D5
:10428000BDE8F08FC820FFF753F900208DF810002B
:10429000F34A1268D17BF24A5268107804AB0122CB
:1042A000FDF797FF10B14FF0FF30E8E7EC4A1268D6
:1042B0005179EB4A5268107804AB0122FDF789FF6F
:1042C00010B14FF0FF30DAE7E54A1268917CE44A1A
:1042D0005268107804AB0122FDF77BFF10B14FF05C
:1042E000FF30CCE7DE4A1268D17DDD4A5268107893
:1042F00004AB0122FDF76DFF10B14FF0FF30BEE7B8
:10430000D74A12681179D64A5268107804AB012254
:10431000FDF75FFF10B14FF0FF30B0E70C208DF8D4
:104320001000CF4A12681179CD4A5268107804AB58
:104330000122FDF74EFF10B14FF0FF309FE70F2035
:10434000FFF7F6F8C648806A407A8DF81000C44A34
:1043500012689178C24A5268107804AB0122FDF7C6
:1043600038FF10B14FF0FF3089E7BD48806A007A0E
:104370008DF81000BA4A12685178B94A526810781C
:1043800004AB0122FDF725FF10B14FF0FF3076E7B7
:10439000B9F1000F07D0B248806A807A40F0E0009F
:1043A0008DF8100004E0AE48806A807A8DF8100025
:1043B000AB4A12689179AA4A5268107804AB01227C
:1043C000FDF707FF10B14FF0FF3058E7B9F1000FCC
:1043D00007D0A348806AC07A40F0E0008DF8100052
:1043E00003E0A048C07A8DF810009D4A1268D17988
:1043F0009B4A5268107804AB0122FDF7EAFE10B127
:104400004FF0FF303BE7B9F1000F02D0C820FFF7B3
:104410008FF840208DF81000914A12681179904A67
:104420005268107804AB0122FDF7D3FE10B14FF0B3
:10443000FF3024E778208DF81000894A12685179FE
:10444000874A5268107804AB0122FDF7C2FE10B112
:104450004FF0FF3013E783498889FFF769F80020A0
:104460008DF810007E4A126851797D4A52681078A2
:1044700004AB0122FDF7ADFE10B14FF0FF30FEE6B8
:10448000774A1268917A764A5268107804AB022211
:10449000FDF7F9FD10B14FF0FF30F0E69DF8110087
:1044A0009DF8101040EA012B0C209BFBF0F0C6B2E7
:1044B0000020A86068602860A0606060206082467C
:1044C00065E0674A1268D17A654A5268107804AB91
:1044D0000C22FDF7D8FD10B14FF0FF30CFE69DF86C
:1044E00011009DF8101040EA012000B2ADF808005C
:1044F0009DF813009DF8121040EA012000B2ADF8BB
:104500000A009DF815009DF8141040EA012000B241
:10451000ADF80C00BDF90810206808442060BDF912
:104520000A10606808446060BDF90C10A068084477
:10453000A0609DF817009DF8161040EA012000B217
:10454000ADF800009DF819009DF8181040EA012010
:1045500000B2ADF802009DF81B009DF81A1040EA69
:10456000012000B2ADF80400BDF90010286808442D
:104570002860BDF90210686808446860BDF904103D
:10458000A8680844A8600AF1010000F0FF0AB245DB
:1045900097DB3448D0F800C02868C117090441EA05
:1045A00010410704624600233846FBF784FE32467A
:1045B0000023CDE90201FBF77EFE28602948D0F8F0
:1045C00000C06868C117090441EA10410704624647
:1045D00000233846FBF76FFE32460023CDE9020187
:1045E000FBF769FE68601F48D0F800C0A868C117D3
:1045F000090441EA10410704624600233846FBF7EC
:104600005AFE32460023CDE90201FBF754FEA860B2
:104610001448D0F804C02168C817000440EA1148C3
:104620000F046246002338464146FBF744FE3246FB
:104630000023CDE90201FBF73EFE20600948D0F8D7
:1046400004C06068C117090441EA104107046246CA
:1046500000233846FBF72FFE3246002304E000001B
:10466000280000209C840008CDE90201FBF723FE0E
:1046700060601148D0F804C0A068C117090441EA7D
:1046800010410704624600233846FBF714FE324609
:104690000023CDE90201FBF70EFEA060A068002810
:1046A00004DDA068A0F58030A06003E0A06800F5FC
:1046B0008030A0600020E2E59C8400082DE9FC5FCA
:1046C00006460F4600253D494968087801AB03229C
:1046D0000D21FDF7D8FC10B10720BDE8FC9F9DF827
:1046E000040000F01F008DF804009DF8050000F0A4
:1046F0001F008DF805009DF8060000F01F008DF8E2
:104700000600002456E056F8240057F82410A0EBC9
:10471000010BBBF1000F01DB594601E0CBF10001B9
:10472000084603F059FC4FF08F41009003F022FB44
:10473000814601A8005D68B32149086803F064FC64
:10474000834659461F4803F015FB804604E01E4986
:10475000404603F0A1FC804601A8005D401EC0B2A7
:1047600001A908550028F2D14146484603F002FB52
:1047700083464FF07E5103F08DFD82462AF0004BB8
:104780000F488169584603F053FD12D20120A04022
:1047900005430EE00A480169484603F049FC05D389
:1047A00007484169484603F043FD02D20120A0407A
:1047B0000543641C032CA6DB28468EE72800002056
:1047C0009C84000800B04C4554E3853F10B5044676
:1047D000204600F00FF80346E01C00F00BF843EA17
:1047E000C00083B2A01D00F005F843EA801083B238
:1047F000184610BD014691F90020002A01DD002075
:104800001EE091F90020002A01DA042018E091F955
:104810000120002A01DD012012E091F90120002A87
:1048200001DA05200CE091F90220002A01DD0220C6
:1048300006E091F90220002A01DA062000E00720B4
:10484000704700001FB54FF4A060FDF72DFD7048C4
:1048500001F06EFBFEF74AFE4FF47A70FEF768FE39
:1048600000BFFDF793FB0028FBD16A4908804FF495
:10487000165001F0ADFB68A001F032FB4FF47A70E6
:10488000FEF756FE00BF00F08DFA0028FBD169A0AC
:1048900001F026FBFDF712FD4FF4E1513220FDF748
:1048A00063FFB3E0694A6A496A4800F069F96848F9
:1048B000006803F0C5F904460D466648006803F039
:1048C000BFF906460F466148006803F0B9F9804613
:1048D00042460B4660A0CDE90067CDE9024501F0F4
:1048E000FFFAC820FEF724FE4A48008800F4004082
:1048F0000028D6D000246148017861A001F0F0FAC8
:104900005E480078352840D008DC31280DD03228A8
:1049100017D0332821D0342867D12AE0362840D058
:1049200041284AD0422860D153E05C4800880A28D8
:1049300005DA5A480088401C5849088000E00124E4
:1049400057E056480088012805DD54480088401E7D
:104950005249088000E001244BE0514800880A28B1
:1049600005DA4F480088401C4D49088000E00124CA
:104970003FE04B480088012805DD49480088401E7B
:104980004749088000E0012433E0464800880A28AF
:1049900005DA44480088401C4249088000E00124B0
:1049A00027E040480088012805DD3E480088401E79
:1049B0003C49088000E001241BE03B4800880A28AD
:1049C00005DA39480088401C3749088000E0012496
:1049D0000FE035480088012805DD33480088401E77
:1049E0003149088000E0012403E030A001F078FAAA
:1049F00000BF00BF0020074908801CB133A001F0B0
:104A00006FFA02E03AA001F06BFA00BF4AE700003B
:104A100020A10700600000206D7075363035302011
:104A2000696E697469616C697A696E672E2E2E0AE7
:104A30000000000070776D20696E697469616C69AF
:104A40007A696E672E2E2E0A0000000008000020F2
:104A500004000020000000207961773A252E32669C
:104A6000202070697463683A252E32662020726FA8
:104A70006C6C3A252E32660A00000000DC01002032
:104A8000796F7572206B657976616C206973202768
:104A9000256327202121210A000000000C000020AE
:104AA0000E00002010000020120000206572726FBE
:104AB000722021212120696E76616C6964206B650A
:104AC0007976616C202121210A00000070776D2029
:104AD00061646A7573746D656E74206973206F7597
:104AE00074206F662072616E6765202121210A00A3
:104AF00070776D2061646A7573746D656E7420697A
:104B000073206D616465202121210A007047000037
:104B100070B50446002624F00104184890F82400DB
:104B200008B1002070BD1548807A10B94FF0FF30F1
:104B3000F8E71248057C807A20401049087408463E
:104B4000007CA04202D04FF0FF3600E0002614B9EE
:104B50000A48007D18B1012001F054F902E000205C
:104B600001F050F93CB100F0ABFC20B103480574F2
:104B70004FF0FF30D6E73046D4E700002800002091
:104B80002DE9F04F99B004460D4616464FF07E577A
:104B90004FF000084FF000094FF0000A12A813A9C7
:104BA00018AB0EAACDE9001014A916A8FEF78EFEC8
:104BB00018B1012019B0BDE8F08FBDF84C0000F429
:104BC000807000287ED00E9803F006FA83464FF0DE
:104BD0009D4103F0CFF807460F9803F0FDF9834697
:104BE0004FF09D4103F0C6F88046109803F0F4F9A9
:104BF00083464FF09D4103F0BDF88146119803F0C4
:104C0000EBF983464FF09D4103F0B4F882463946F4
:104C10004FF0804003F040FA4946059003F03CFA1B
:104C2000414607904FF0404003F036FA5146059058
:104C300003F032FA0690079903F02EF8834602F04B
:104C4000FFFFCDE90801FEF717F94FF06632544B2C
:104C5000CDE90A0102F01AFDCDE90C0102F0C4FA17
:104C6000206049464FF0804003F016FA4946029012
:104C700003F012FA414604904FF0404003F00CFA62
:104C80004146029003F008FA0390049903F002FBF6
:104C900083464FF07E5102F0FFFF059002F0D0FFF7
:104CA000CDE9080139464FF0804003F0F5F941465F
:104CB000039003F0F1F9494604904FF0804003F06F
:104CC000EBF900E068E05146039003F0E5F9834614
:104CD000049902F0E1FF059002F0B2FFCDE9060170
:104CE000DDE90823FEF710FB4FF066322C4BCDE9CF
:104CF0000A0102F0CBFCCDE90C0102F075FA286044
:104D00005146504603F0C8F949460490484603F01E
:104D1000C3F941460390404603F0BEF9394601907D
:104D2000384603F0B9F90090019902F0B5FF0290FE
:104D3000039903F0AFFA8346049903F0ABFA0590A8
:104D400002F07EFFCDE908015146384603F0A4F990
:104D500049460490404603F09FF90390049902F0FD
:104D60009BFF4FF08041059003F096F9834602F0D7
:104D700067FFCDE90601DDE90823FEF7C5FA4FF02C
:104D80006632074BCDE90A0102F080FCCDE90C0147
:104D900002F02AFA306001E002200BE7002009E768
:104DA00066A64C4070B50024FCF7D0FF00F024F953
:104DB000002840D1782000F02FFFC4B20CB10120B0
:104DC00070BD7820FFF7A4FEC4B20CB10220F7E753
:104DD000642000F0D3FEC4B20CB10320F0E7FEF76C
:104DE00069FDC4B20CB10420EAE71548FFF7EEFCF8
:104DF0000546FEF7B9FFC4B20CB10520E0E740F26A
:104E00007310FEF7FFFBC4B20CB10620D8E7642094
:104E1000FEF7DAFEC4B20CB10720D1E700F0A7FF1D
:104E200004460CB10820CBE7012000F0A3FDC4B27A
:104E30001CB10920C4E70A20C2E70020C0E7000037
:104E40005400002001461148407A30B1012807D0B3
:104E5000022808D003280CD108E0022008700BE0DB
:104E60000420087008E00820087005E01020087091
:104E700002E04FF0FF30704700BF0448C07C18B11B
:104E800008784006000E08700020F4E72800002093
:104E900001461348407A30B1012808D002280AD0D0
:104EA000032810D10BE04FF4804008800EE041F65B
:104EB0009C7008800AE04FF48050088006E04FF4B0
:104EC0000060088002E04FF0FF30704700BF0448E8
:104ED000C07C10B10888401008800020F5E7000071
:104EE0002800002001460248007C0870002070471E
:104EF0002800002001460F48007A30B1012807D071
:104F0000022809D003280FD10AE0FA2008800EE019
:104F10004FF4FA7008800AE04FF47A70088006E0D7
:104F20004FF4FA60088002E00020088000BF00BF54
:104F3000002070472800002001460E48007A30B15A
:104F4000012807D0022808D003280CD108E00A481D
:104F500008600BE00948086008E00948086005E0BF
:104F60000848086002E04FF0FF30704700BF0020A3
:104F7000FBE70000280000200000034300008342FC
:104F8000333303423333834101461248C07A082841
:104F900017D2DFE800F01704070A0D101318BC2021
:104FA000088013E06220088010E02A2008800DE0CD
:104FB000142008800AE00A20088007E00520088005
:104FC00004E000BF00BF0020088000BF00BF002039
:104FD00070470000280000200146064890F8240091
:104FE00010B14FF0FF3070470248C08908800020A0
:104FF000F9E70000280000201CB580208DF8000093
:10500000654A1268917C644A526810786B460122A6
:10501000FDF7DFF810B14FF0FF301CBD6420FEF744
:1050200087FA00208DF800005B4A1268917C5A4A8A
:10503000526810786B460122FDF7CBF810B14FF0A3
:10504000FF30EAE7544A1268917D534A526810785B
:105050006B460622FDF717F810B14FF0FF30DCE782
:105060009DF80500C007400F9DF8031001F00101F5
:1050700040EA41009DF8011001F0010140EA0104FD
:1050800094B1012C03D101214348C17431E0022CB9
:1050900003D100214048C1742BE021463FA0FBF71B
:1050A00041F94FF0FF30B8E73B4A1268D1783A4AED
:1050B000526810786B460122FCF7E5FF10B14FF003
:1050C000FF30AAE79DF8000000F00F042CB93D481E
:1050D000FBF728F94FF0FF309FE7042C06D13AA0E8
:1050E000FBF720F901212C48C17402E000212A4875
:1050F000C174FF2128488172FF2027490872FF21CF
:1051000025484172C1724FF6FF71C181FF210174C0
:1051100081740121017380F82210002180F823108E
:10512000417501751630016041608160163880F864
:10513000241080F82510C1844FF4FA6000F062FC5E
:1051400010B14FF0FF3068E7022000F02BFB10B1E8
:105150004FF0FF3061E72A2000F0CEFC10B14FF095
:10516000FF305AE7322000F009FD10B14FF0FF3058
:1051700053E70020FFF7CCFC10B14FF0FF304CE7B5
:10518000002000F051FB10B14FF0FF3045E7002048
:1051900000F042FD002040E728000020556E7375A6
:1051A00070706F7274656420736F66747761726576
:1051B0002070726F64756374207265762025642E8A
:1051C0000A0000008492000848616C662073656ED6
:1051D0007369746976697479207061727420666F7E
:1051E000756E642E0A0000002DE9F04385B0054677
:1051F0000E4690469946294890F8250020B14FF078
:10520000FF3005B0BDE8F08316B94FF0FF30F8E786
:10521000002423E0281B102801DD102000E0281BBB
:1052200087B232193946204600F05EFD10B14FF0CA
:10523000FF30E6E701AA3946204600F001F910B137
:105240004FF0FF30DDE730193A4601A9FBF710FABD
:1052500010B16FF00100D4E7E01984B2AC42D9DBA1
:105260004FEA28208DF8000008F0FF008DF80100BB
:105270000A4A1268917E094A526810786B460222E7
:10528000FCF7A7FF10B14FF0FF30BAE70121034848
:1052900080F82510A0F826900020B2E72800002012
:1052A00038B50446282C02DD4FF0FF3038BDDCB99C
:1052B000002000F0EBFB00208DF8000007208DF8A7
:1052C00001002E4A1268917C2C4A526810786B4675
:1052D0000222FCF77EFF10B14FF0FF30E6E700211D
:1052E000264801750020E1E7012000F0CFFB2020D7
:1052F0008DF80000012C06D100208DF8010005205A
:1053000000F0FAFB17E0052C06DC01208DF8010007
:10531000052000F0F1FB0EE0142C06DC02208DF8D5
:1053200001000A2000F0E8FB05E003208DF80100F1
:10533000142000F0E1FB9DF80100072101EB801033
:10534000C0B28DF801000D4A1268917C0B4A526878
:1053500010786B460222FCF73CFF10B14FF0FF3093
:10536000A4E708210548817200210173012101751C
:105370000020FFF7CDFB002098E700002800002068
:10538000F8B504460F4616462C4890F8240010B98C
:105390004FF0FF30F8BD2948807A10B94FF0FF3048
:1053A000F8E7264A1268917A244A526810786B46C8
:1053B0000222FCF768FE10B14FF0FF30EAE79DF8DB
:1053C00001009DF8001040EA0125A54203DA002003
:1053D0003070401EDEE7194840684088B5EB600F2A
:1053E00017DD164A1268517C144A526810786B46D1
:1053F0000122FCF748FE10B14FF0FF30CAE79DF8DC
:10540000000000F0100020B100F05AF86FF0010029
:10541000C0E7E2B2094B1B68D97A084B5B68187881
:105420003B46FCF730FE10B14FF0FF30B2E795FB82
:10543000F4F0401E30700020ACE70000280000208F
:10544000F8B504460D46164616B94FF0FF30F8BDC4
:105450001A48807A10B94FF0FF30F8E720128DF823
:105460000000E0B28DF801009DF8010028441349C6
:1054700049684989884202DD4FF0FF30E7E70F4A6B
:105480001268117E0D4A526810786B460222FCF7B2
:10549000A0FE10B14FF0FF30D9E7EAB2074B1B680E
:1054A000597D064B5B6818783346FCF7ECFD10B16C
:1054B0004FF0FF30CBE70020C9E7000028000020B4
:1054C00008B57048807A10B94FF0FF3008BD002051
:1054D00000906C4A1268D17B6A4A526810786B4619
:1054E0000122FCF776FE10B14FF0FF30EEE7654A7F
:1054F00012685179634A526810786B460122FCF7B2
:1055000068FE10B14FF0FF30E0E75E4A1268117993
:105510005C4A526810786B460122FCF75AFE10B1C3
:105520004FF0FF30D2E7574890F82400002853D0BE
:105530000C200090534A12681179524A5268107830
:105540006B460122FCF745FE10B14FF0FF30BDE77E
:105550003220FDF7EDFFC02000904A48807A00F02D
:10556000010020B19DF8000040F020000090454A65
:1055700012681179434A526810786B460122FCF791
:1055800028FE10B14FF0FF30A0E73E48407C10B13C
:105590000220009001E0002000903A4A1268D17B7E
:1055A000384A526810786B460122FCF712FE10B19F
:1055B0004FF0FF308AE700200090324A126851799C
:1055C000304A526810786B460122FCF702FE002830
:1055D00055D04FF0FF3079E704200090294A126837
:1055E0001179284A526810786B460122FCF7F1FDC8
:1055F00010B14FF0FF3069E72248807C20B9214884
:10560000807A00F0010010B94020009001E0602095
:1056100000901C4A126811791A4A526810786B4639
:105620000122FCF7D6FD10B14FF0FF304EE73220DB
:10563000FDF77EFF1348407C10B10120009001E08F
:10564000002000900F4A1268D17B0E4A52681078F1
:105650006B460122FCF7BDFD10B14FF0FF3035E77E
:10566000084A12685179074A52681078054B10337E
:105670000122FCF7AEFD10B14FF0FF3026E700200D
:1056800024E70000280000202DE9F04F8DB083466C
:105690000F4602200C90424890F8240020B10020D0
:1056A00000F068F9012600E0002603A8FFF722FCBD
:1056B00005A8FFF7C7FB01A8FFF766FC02A8FFF7E4
:1056C0008BFC374890F80AA004A8FFF70BFC0024D5
:1056D00007E0002239465846FEF7B8FD00B902E05F
:1056E000641C022CF5DB00BF022C01D1002528E050
:1056F000002407E0012206A909A8FEF7A7FD00B9CA
:1057000002E0641C022CF5DB00BF022C01D1002555
:1057100017E006A93846FDF75BFB00F0FF0809A972
:105720005846FEF7CBFF00F0FF090025B9F1000F46
:1057300001D145F00105B8F1000F01D145F0020596
:1057400000BFFF2016490872FF2115484172C1723F
:105750004FF6FF71C181FF21817201740121017334
:10576000BDF80C0000F04EF99DF8140000F01AF896
:10577000BDF8040000F0C0F9BDF8080000F0FEF923
:10578000504600F049FA9DF81000FFF7C1F916B134
:10579000012000F0EFF828460DB0BDE8F08F0000C2
:1057A0002800002038B504461E48807A10B94FF012
:1057B000FF3038BD022C06D0042C07D0082C08D0AE
:1057C000102C0CD108E0002000900BE00820009085
:1057D00008E01020009005E01820009002E04FF053
:1057E000FF30E6E700BF0F48407A9DF80010B0EBAD
:1057F000E10F01D10020DCE70A4A1268D179094A99
:10580000526810786B460122FCF7E3FC10B14FF0B0
:10581000FF30CEE79DF80000C11002484172002021
:10582000C7E700002800002038B504465048807CB7
:10583000A04201D1002038BD002C46D04C4A12684D
:1058400011794B4A526810786B460122FCF71BFC19
:1058500010B14FF0FF30EEE79DF8000020F020007F
:105860000090434A12681179414A526810786B4699
:105870000122FCF7AEFC10B14FF0FF30DBE7032054
:10588000FDF756FE02200090394890F8220020B122
:105890009DF8000040F080000090354890F823000B
:1058A00020B19DF8000040F030000090304A1268AE
:1058B000117D2F4A526810786B460122FCF789FC53
:1058C000002851D04FF0FF30B5E7294A126811790E
:1058D000274A526810786B460122FCF7D4FB10B1BE
:1058E0004FF0FF30A7E72248807A00F0010028B18E
:1058F0009DF8000040F02000009004E09DF80000BA
:1059000020F0200000901A4A12681179184A526853
:1059100010786B460122FCF75CFC10B14FF0FF30B1
:1059200089E70320FDF704FE114890F8220010B12A
:105930008020009001E0002000900D4890F82300A6
:1059400020B19DF8000040F030000090084A126835
:10595000117D074A526810786B460122FCF739FC2A
:1059600010B14FF0FF3066E701488474002062E711
:105970002800002038B50446214890F82400A042B1
:1059800001D1002038BD24B31D4890F8250010B97E
:105990004FF0FF30F6E7002000F034FA0020FFF768
:1059A00043FF1749C88C00F0E9F800200090144923
:1059B000496808786B4601222321FCF70AFC012183
:1059C0000F4880F82410012000F01CFAFFF778FD42
:1059D00013E0002000F016FA0948007C0090084906
:1059E000496808786B4601222321FCF7F2FB00216D
:1059F000034880F82410FFF763FD0020C2E7000091
:105A00002800002038B504461F48807A10B94FF0AE
:105A1000FF3038BDFA2C09D0B4F5FA7F09D0B4F5BF
:105A20007A7F09D0B4F5FA6F0CD108E0002000901D
:105A30000BE00820009008E01020009005E01820FE
:105A4000009002E04FF0FF30E3E700BF0E48007A1D
:105A50009DF80010B0EBE10F01D10020D9E70A4A10
:105A600012689179084A526810786B460122FCF757
:105A7000B0FB10B14FF0FF30CBE79DF80000C01035
:105A8000014908720020C4E72800002038B5044608
:105A9000184890F82300A04201D1002038BD14B16D
:105AA0003020009001E0002000901248807C20B15E
:105AB0009DF8000040F0020000900E4890F822008F
:105AC00020B19DF8000040F080000090094A126863
:105AD000117D084A526810786B460122FCF779FB69
